:1000000000000220390200002D0200002D02000035
:100010002D0200002D0200002D0200000000000053
:100020000000000000000000000000002536000075
:100030002D0200000000000079360000D9360000D3
:100040002D020000191800002D020000E12500001B
:10005000E51800002D020000651C0000412700008B
:100060002D0200002D020000E5270000951A000077
:100070002D0200002D0200002D0200002D020000C4
:100080002D0200002D0200002D0200002D020000B4
:100090002D0200002D0200002D0200002D020000A4
:1000A0002D0200002D0200002D020000B1250000ED
:1000B0002D0200002D0200000000000000000000E2
:1000C0002D0200002D0200002D0200002D02000074
:1000D0002D0200002D0200002D0200002D02000064
:1000E0002D020000000000000000000000000000E1
:1000F000000000002D02000000000000791E00003A
:100100000348044B834202D0034B03B118477047A6
:100110001020002010200020000000000548064BA1
:100120001B1AD90F01EBA301491002D0034B03B1F5
:100130001847704710200020102000200000000009
:1001400010B5064C237843B9FFF7DAFF044B13B11F
:100150000448AFF300800123237010BD382900202C
:1001600000000000EC43000008B5054B1BB1054939
:100170000548AFF30080BDE80840FFF7CFBF00BFE0
:10018000000000003C290020EC43000008B54FF0BF
:10019000A0430322C3F80C2708204FF0805101F040
:1001A0002FFEBDE80840014801F0C4BA90420000AB
:1001B00008B54FF0A0430822C3F80C25034801F00E
:1001C000B9FABDE80840024801F0B4BA984200000C
:1001D000A44200004FF0A04308220248C3F80825BB
:1001E00001F0A8BAB4420000014801F0A3BA00BF70
:1001F000C042000008B54FF0A04308220848C3F8E9
:10020000082501F097FA074C4FF47A7001F0A2FC30
:10021000216805484B1C236001F08CFAF4E700BF0D
:10022000CC42000008000020DC42000000BE00BFFD
:10023000FDE700BF704700BF8B4A012370B5C2F8CD
:100240000435D2F80034002BFBD04FF010230021EE
:10025000854AC3F80C12D2F80034002BFBD04FF0C3
:10026000A0440026C2F80465804DD4F844372B40E2
:1002700043F00403C4F84437D4F848372B4043F024
:100280000403C4F84837D4F858372B4043F004032C
:10029000C4F85837D4F838372B4043F00403C4F877
:1002A0003837062000F0F8F8082000F02DF9D4F8CF
:1002B00054376F4A2B4043F00403C4F85437D4F842
:1002C00020372B4043F00403C4F82037D2F82437FA
:1002D0002B4043F00403C2F82437D4F868372B408E
:1002E00043F00403C4F86837D2F80C372B4043F0CE
:1002F0000403C2F80C37D4F82C375E4A2B4043F085
:100300000403C4F82C37D4F834372B4043F00403EB
:10031000C4F83437D4F840372B4043F00403C4F812
:100320004037D4F830372B4043F00403C4F830375B
:10033000D4F80C372B4043F00403C4F80C37D4F83E
:1003400064372B4043F00403C4F86437D4F878379B
:100350002B4043F00403C4F87837D4F874372B40AB
:1003600043F002030221C4F87437C2F8841C01F080
:1003700003FB01F06DFBFFF75DFF3F4A3F4901239F
:10038000C4F824354FF00043C2F87C61C2F804334E
:100390000B6943F010030B61D4F8203543F0800360
:1003A000C4F82035C4F81C67D4F81C3743F4003374
:1003B000C4F81C37D2F87C3133B920BF40BF20BF0E
:1003C000D2F87C31002BF8D04FF0A0430222C3F8C2
:1003D0001C27D3F820252849294C42F08002002010
:1003E000C3F82025C1F87C0140222448C4F88021AC
:1003F0004FF00043C1F808330169224A224B21F033
:1004000010019A4201610DD2591E891A1F4B21F029
:100410000301043119441C68146004338B4202F157
:100420000402F8D11A4B1B4A93420BD2013AD21A5A
:1004300022F0030204321A44002019460433934286
:100440000860FAD10D4AD2F8883043F47003C2F83C
:100450008830BFF34F8FBFF36F8F03F0DBFEBDE833
:10046000704001F08FBF00BF00E00140F0F8FCFFDA
:100470000003005000A007400060004000ED00E0D5
:1004800000E100E00020002010200020F8430000E0
:100490001020002064290020082815D8DFE800F08B
:1004A00005142114141429141500164B802101225F
:1004B000C3F80C15C3F81C27124B1022C3F80C25E7
:1004C000104B0122C3F8102770470E4B80210122E8
:1004D000C3F80815C3F81C270A4B1022C3F80825D7
:1004E000EEE7084B80210122C3F80815C3F81C274A
:1004F000E2E7044B80210122C3F80C15C3F81C2746
:10050000EAE700BF00030050082800D97047334ACB
:10051000334B125C1B5C012A22D010B49AB34FF00B
:10052000A0424FF480614FF400740120C2F80845E6
:10053000C2F82407C2F808154FF0A0420121012B90
:10054000C2F8281733D0002B38D1264B0422C3F829
:100550000C25244B5DF8044B0122C3F80827704793
:100560004FF0A0420221012BC2F82417C2F828172D
:1005700029D06BBB1B4B0422C3F80C25194B01225D
:10058000C3F8082770474FF0A0424FF480614FF442
:1005900000740120C2F80C45C2F82407C2F80C15FB
:1005A0004FF0A0420121012BC2F82817CBD10D4BEF
:1005B0005DF8044B0222C3F808277047094B042258
:1005C000C3F80825C5E7074B0222C3F80827704780
:1005D000044B0422C3F80825D0E700BF8443000081
:1005E0007843000000030050704700BF2DE9F04F32
:1005F00085B09446149C019214F0020206460F4600
:100600009846DDE9125BDDF838900F9B9DF84010AD
:10061000029204F0100000F08980E0B162052FD44E
:1006200043BB119B102B00F05981022B00F07F81FE
:10063000302389F80030012204F00305002900F07E
:10064000CE802D2309F80230531C002D40F0668126
:100650005B4529D362E1202B00F0B180002900F036
:1006600012812D2209F8032065461A46013335E030
:10067000620505D49D4200F0DE809B4500F0DB80E2
:10068000119A102A04F0030500F0F480022A00F009
:10069000BE80202B40F02E81002D40F0B580BBF1B4
:1006A000200F40F2B1802023019A9A4614469D1AE9
:1006B00022464346013439462020B0472B195B457A
:1006C000F6D353460BF1FF355A1CED1A5A4588BF35
:1006D0000025019A01321544A3B15A1E09EB020408
:1006E0002A4403959144A4EB030A1D46A9EB040296
:1006F00014F8010943463946B047A245F6D12B46C6
:10070000039D1D44029B6BB1019BEC1A5C4509D211
:100710002A464346394620200134B0475C4505F15E
:100720000105F5D3284605B0BDE8F08FBBF1000FF9
:1007300014D014F0010E45D0002900F0AD80AB427A
:100740000BF1FF3B0FD39B451FD800287FF466AF0A
:10075000202B86D1019D1F222023BFE7AB4238BF4B
:1007600004F0010E5CD25A1E4A444FF0300C04E0F3
:1007700001339D4202F801CF01D9202BF8D1BEF1FF
:10078000000F67D05B4580F0EC805A1E4A444FF062
:10079000300C04E001335B4502F801CF63D0202B1D
:1007A000F8D100287FF464AF04F00305002DD1D107
:1007B000BBF1200F3FF677AFCCE7202B09D1654680
:1007C0001F228BE7AB42CED300287FF427AF202B2C
:1007D000EED01A4604F0030500297FF432AF630718
:1007E0006FD52B2309F80230531C002D40F0968062
:1007F0009B453FF659AF91E0202B40F093801DB907
:10080000BBF1200F3FF650AF019D1F2266E7202B62
:100810003FF442AF9C460133622209F80C2038E7CE
:100820000028CAD060053FF52BAF002B3FF4F9AE8E
:10083000AB427FF425AFB3F1010C3FF4F2AE119A55
:10084000102A7FD0022A00F085801A4604F00305A2
:10085000634650E000287FF40BAF1A4604F003050E
:10086000202AA3D0EAE600287FF4D8AE5A4604F046
:100870000305F5E7A206BFD5202BC0D0582209F802
:100880000320013305E761073AD42407654650D4B5
:10089000002B7FF422AF37E714F00C0F01D00BF1DF
:1008A000FF3BAB42FFF45FAF5B45FFF46EAF002848
:1008B0007FF4B4AE202B3FF44DAF1A4604F003058D
:1008C0008DE7200723D4D5BB934588BF13463FF659
:1008D000EBAE002A4CD01346013A1FE0A0061FD40D
:1008E000782389F80030302389F80130022204F09F
:1008F0000305A3E65A1C4FF0300C09F803C0AFE71C
:100900002B2209F8032065461A460133E6E6202328
:1009100009F80230531C002D3FF46AAF019DDDE65B
:100920005823DEE7782209F803200133B1E6622379
:10093000D7E7202209F803201A460133CEE6019DAD
:100940001346C9E6A506A3F1020206D5582509F803
:1009500002507AE704F003055EE7782509F80250B3
:1009600073E700287FF484AE202B3FF44DAF30E7CF
:10097000019DD7E600B9704701F060BA00000000A1
:100980002DE9F04F9DB098460B1E0893269B0A93C5
:1009900018BF8346A44B98F80000924608BF9B46B8
:1009A000002800F020834FF0000909920AE04A462F
:1009B000099B089909F10109D84798F80000002817
:1009C00000F08E80252808F10108F0D1002443466C
:1009D00013F8010BA0F12002102A0AD8DFE802F078
:1009E0004009093C090909090909093809340909B3
:1009F0003000A0F13002092A40F2B3802A2800F02A
:100A0000D58000220B922E2800F0C0800026A0F195
:100A10006802122A2DD8DFE812F030012C002A01DA
:100A20002C001E012C002C002C002C002C002C0073
:100A30002C0027002C002C002C002C002C00270060
:100A400044F001049846C2E744F002049846BEE729
:100A500044F004049846BAE744F010049846B6E718
:100A600044F008049846B2E798F8010044F4807412
:100A700001336628984643D8452826D9A0F1460375
:100A8000202B22D8DFE813F00201210021002100F1
:100A9000210021002100210021002100210021004E
:100AA0002100210021002100210021004402210019
:100AB000210021002100210021002100210021002E
:100AC0004402DD014402210002014A46099B0899C3
:100AD000D84798F8000009F1010900287FF472AFA7
:100AE000DDF824A04C46CA4501D80AF1FF3908991F
:100AF00053464A460020D84720461DB0BDE8F08F37
:100B0000A0F16903DBB20F2BDFD801229A4049F232
:100B100041010A4040F0B3810A2B58D0072BD4D1B1
:100B20000A9D55F8043B002B00F0D48144F02107C6
:100B300014A912910C4603E0202A00F0D5810B463F
:100B400003F00F01092908468CBF00F1370130314D
:100B50000F2B04F8011B02F101024FEA1311EBD82D
:100B6000C2E1002200E0013302EB820200EB42020C
:100B70001878A0F1300109299846A2F13002F2D983
:100B80002E280B9203F101037FF440AF98F8010087
:100B9000A0F13001092944F480641A4640F27D81B5
:100BA0002A2800F08A81984601332FE70A9A98F89C
:100BB000010052F8045B0A92002DB8BF69429846C2
:100BC000BABF44F002040B910B9501331BE7DDF82B
:100BD00028C05CF8047B3878002E14BF31464FF0F3
:100BE000FF31002800F01B8539443B4604E013F830
:100BF000012F002A00F0ED819942F8D1A1EB070AFC
:100C0000650540F1D081B24528BFB24614F0020418
:100C100000F06A840224CDF848A04E44DDE9085A69
:100C20004A46CDF828C008E0E9050000D84717F883
:100C3000010F09F101094A4618B14E4553462946AC
:100C4000F4D1DDF828C0DDF848A0002C40F0258262
:100C5000CDF828C0B1E698F801006C287FF406AF03
:100C600098F8020044F4407408F1030301E798F88F
:100C7000010044F400740133FBE698F80100682891
:100C800000F0AA8144F080040133F2E60A9B0733A6
:100C900023F00703B3EC027B51EC170B0A930246D7
:100CA0000B468DED0C7B03F09DF8002800F0B2811F
:100CB000DDE90C010022002303F09EF8002840F03B
:100CC0006381139014F4806F14AB08BF062612934F
:100CD0001A46A6F1200A3346302105E0013B534570
:100CE00002F8011B00F0EE81092BF7D8F61A9A469C
:100CF000DDE90C0103F0A8F8BF4B03EBCA0393ED49
:100D0000007B07468DED0E7B02F0ACFF02460B46E2
:100D1000DDE90C0102F058FEDDE90E2302F026FDAC
:100D200002460B46CDE9102303F0B6F8054602F063
:100D300089FF02460B46DDE9100102F045FE02463E
:100D40000B46CDE91023AD4B002203F073F80028C9
:100D500000F077812B46013318461D4602F072FFE2
:100D600002460B46DDE90E0103F050F810B10023F6
:100D700001371D469EA3D3E90023DDE90C0103F0F2
:100D800059F8002840F0F181BAF1000F00F0F3812A
:100D9000129BDFF870C2701E18440EE0ACFB0521F8
:100DA000C90801EB8102A5EB42023032092D00F89F
:100DB000012F40F24D820D461E46202E06F1010302
:100DC0000AF1FF3AEAD12026129B8D48711E194480
:100DD00007E001F8017F731C1746002A00F0DF814D
:100DE0001E4680FB0723FA17C2EBA30202EB820325
:100DF000A7EB4307202E07F13007EAD104F00302E6
:100E0000012A40F015840B9B002B00F0C182139A3D
:100E1000002A00F02584013B202B0B9340F2B8827E
:100E2000129A0B99731E1344302205E001368E424C
:100E300003F8012F00F0AC83202EF7D11F23CA4600
:100E4000DCE10A9BA20709F1010603F1040740F166
:100E5000088118780899099B4A46D8470B9B012BB3
:100E600040F29F82DDE90845994432462B4601361F
:100E700021462020D8474E45F7D10A979DE56F2897
:100E800000F08D8040F22683782800F05F824FF0DA
:100E90000A0A24F01004D44642E0002606EB860637
:100EA00000EB4600A0F1300612F8010FA0F130036C
:100EB000092BF3D99046531CA9E50A9B98F8020028
:100EC00053F8046B0A9308F1020826EAE67608F163
:100ED00001039CE524F0100714F4806347F0210718
:100EE0003FF426AE14AB1293129B00930823059394
:100EF00010200023CDE902300192DDE908134A46B3
:100F0000069704965846FFF771FB0A95814654E50B
:100F1000582879D0622840F0D7804FF0020AD44692
:100F200014F4806500F0248124F00D0313F40070A4
:100F30000A9A40F03B8213F4807102F1040440F0FD
:100F400018835F0640F114821278002A40F04F8225
:100F500023F01003002D00F04A82114614AA1292C9
:100F600006930B9BCDF80CC0CDE904630191129B55
:100F7000009300234A4602935846DDE90813FFF721
:100F800035FB0A94814618E5DDE90C230020002199
:100F900002F01AFD0123CDE90C01139392E64FF004
:100FA000080AD446BCE714F0020400F0458202248B
:100FB000DDE90856CDF828C04A4633462946D847C9
:100FC00017F8010F09F101090028F5D1DDF828C053
:100FD0003BE6A3EB070A13E698F8020044F0C004CE
:100FE00008F1030345E5044681467CE5AFF3008044
:100FF0000000C0FFFFFFDF41904300000000E03F22
:1010000067666666CDCCCCCC4FF0100A44F0200465
:10101000D44685E7099E089D33464A4629466E20F8
:10102000D84709F10204334609F10102294661203B
:10103000D8472246334629466E2009F10309D8478E
:10104000BBE4DDE91001C34B002202F0D5FE00280D
:101050007FF490AE002D40F097812B4601331D4662
:1010600088E60B9B012B40F29681DDE9085A09F1D5
:10107000FF361E444C462246534601342946202062
:10108000D847B442F7D10B9B99440A9B2246187863
:10109000DDE90813D8470A978FE44C460B9B53456C
:1010A0007FF6D6ADDDE908564B44A3EB0A09674647
:1010B00022463346013429462020D8474C45F7D1F3
:1010C000BC46C5E5202613E614F4806300F0468193
:1010D00024F011014FF4806311F400740A9A40F077
:1010E000D08011F4807002F1040A40F0CB814D06EB
:1010F00000F129810C0640F18C82B2F9004084EAAB
:10110000E477A7EBE477BFB2E20F002C00F0F681A2
:101110003B4614ACDFF840C2129401E0202810D006
:10112000ACFB0375ED0805EB8507A3EB47079E466F
:101130003037BEF1090F04F8017B00F101002B46A6
:10114000ECD80B9B0691CDE90463CDE90102129B1B
:1011500000930A234A4603935846DDE90813FFF734
:1011600045FACDF828A0814627E44FF0000924E491
:1011700024F00C03DAE6384602F074FD02460B4612
:10118000DDE90C0102F020FC724B002202F034FE7B
:1011900000287FF419AE013727F0010714E604F0A8
:1011A0000302012A00F09882202B00F0928213990A
:1011B000002940F0D680650740F120820DEB030145
:1011C0002B20023681F85000002A7FF438AE0B9AAB
:1011D000B2427FF634AE0C94DDE9084502EB090A11
:1011E000AAEB060A4F460E933A462B460137214694
:1011F0002020D8475745F7D10C9C0E9B129F129484
:10120000DDE9084501331F445644524617F8010DE5
:101210000AF1010A2B462146D847B245F5D1129C66
:10122000A10740F1C0800B9DAAEB0904A542D1465D
:101230007FF6C3ABDDE908674A463B4631462020CE
:101240000134D847A54209F10109F5D8FFF7B5BB2C
:10125000202B3FF4B8AD129A9A441644302204E091
:10126000202B06F8012F3FF4AEAD9A4503F10103A0
:10127000F6D10DEB0A032E220AF1010683F8502065
:10128000A2E5073222F007021046526850F8084BD8
:101290000A9054EA02074FEAD2706ED1002B40F058
:1012A000C9811A4614AC25461294AE462A4C0C90BD
:1012B0004FF0000A0E9602E0BAF1200F2ED09818D7
:1012C00040F10000A4FB005626F0030505EB96054F
:1012D000401B1D1A9C46174662F100034FF0CC32AA
:1012E00002FB05F204FB0322A5FB04352A4403F0AC
:1012F00001060525A6FB05562D18BCF10A0F4FEA7D
:10130000530305F1300577F1000743EAC2730EF885
:10131000015B0AF1010A4FEA5202CDD20C980E9EEF
:101320000B9B0691CDE90463CDE901A0129B0093CC
:101330000A234A460393DDE908135846FFF756F996
:101340008146FFF73ABB14782746DDE64FF0100AD6
:10135000D446E5E50000E03FCDCCCCCC24F0100134
:10136000BAE60DEB03012D20023681F850002BE781
:101370001F064CBF12881268E7E5002A234691DA5F
:10138000634262EB42028DE7E9077FF5F3AC64E666
:10139000CA461F2332E70A9B4A461878DDE908133C
:1013A000D847B14669E5D146FFF707BB073222F0BF
:1013B0000702546852F8081B0A9251EA04020846D0
:1013C00040F0A28023F01003002D00F09D8014AAAD
:1013D0000027129206930B9BCDF80CC0CDE9046355
:1013E000129B0093002301974A460293A3E713F050
:1013F000200F14BF41206120A0F10A0E14A8129002
:10140000074603E020293FF4ABAD2A46B2FBFCF5CA
:101410000CFB152A5FFA8AF0BAF1090F00F1300AC5
:101420008ABF70445FFA8AF0C0B2624507F8010BC8
:1014300001F10101E6D293E50B9B534540F2408157
:101440000B9B1296DDE908564B440A97A3EB0A0A58
:1014500067464A46334609F1010929462020D84704
:10146000D145F6D1BC460A9F0B9B3878129E03F1FA
:10147000010A00283FF4ECAB002C3FF499AD0024A6
:10148000FFF7C9BB1068C20F002800F0BC8080EADB
:10149000E073A3EBE07314A8DFF894C2129001E0AC
:1014A000202C10D0ACFB0375ED0805EB8507A3EBF2
:1014B00047079E463037BEF1090F00F8017B04F163
:1014C00001042B46ECD80B9B0691CDE90463CDE9D2
:1014D00001423CE6692824F0100140F0B08014F489
:1014E00080633FF4F9ADF3E50B9B534598BF0AF1D8
:1014F000010A7FF690AB4FF48064A1E7002B3FF424
:1015000008AE14AB12931CE613F0200F14BF412257
:101510006122A2F10A0114AA0E96CDF8409012920F
:1015200000270C93CDF84CC016460546894603E0CB
:10153000202F17D005460C46214652460023284648
:1015400002F0CAFCD2B2092A02F1300388BF02EBD2
:1015500009035545DBB274F1000406F8013B07F1BD
:101560000107E5D20C9B0E9EDDF84090DDF84CC0E3
:1015700030E71268E2B923F01003CDB114AA129239
:1015800006930B9BCDF80CC0CDE904630190EEE40B
:10159000202E3FF453AC139B002B79D001362D2223
:1015A0000B990DEB0103CA4683F850200B4625E644
:1015B00013F0200F14BF41216121A1F10A0E14A9DB
:1015C00012910F4602E02028DAD02A46B2FBFCF541
:1015D0000CFB152A5FFA8AF1BAF1090F01F1300A02
:1015E0008ABF71445FFA8AF1C9B2624507F8011BEC
:1015F00000F10100E7D2C3E70B9B0122200727D4AB
:101600001E46013BE0E5002B3FF445AF14AB1293BF
:1016100059E7146884EAE477A7EBE47774E514F4F7
:10162000806A3AD014F0020A4DD082464C4635E525
:101630001F23C9E514AB4FF0000A129370E64FF078
:101640000A0A0C46D4466BE4220736D533460122FB
:101650000DEB0301202081F850005E1CB4E51E460E
:1016600014F00C0F0B9B22D0013BB3420B933FF6BF
:10167000D7AB202E3FF48CAE6307E5D506F170039F
:101680006B442B2203F8202CCA4633460136B5E5BD
:101690006307B1D501362B2282E714F002047FF4F0
:1016A000FCAC0B9B002B7FF4CBAEFFF7D1BAB3425F
:1016B0003FF6B6AB202E3FF46BAE731ECA469DE5D7
:1016C0000AF1010A74E40B9B002B7FF414AFFFF7BF
:1016D000BFBA1E461F2377E50B99A1B1139A002AC2
:1016E000BDD04A1E9A420B9288BF1E463FF698AB69
:1016F000202B19D003F170026A442D21023602F822
:10170000201CCA467AE5202B0ED013990029F1D16E
:1017100067077FF573AF03F170026A442B2102362D
:1017200002F8201CCA4669E51E46CA461F2365E525
:10173000CDCCCCCC0FB410B584B006AC4FF0FF329A
:1017400054F8043B009402A904480394FFF718F9E5
:1017500004B0BDE8104004B0704700BF7509000038
:1017600003494FF0804201230B615360704700BF73
:101770000010004005283ED8DFE800F00C151F29B6
:1017800033031E491E4B002002220860C3F80823C1
:10179000002070471B491A4B002010220860C3F834
:1017A0000823002070471849154B00204FF4001201
:1017B0000860C3F80823002070471449104B00202C
:1017C0004FF480020860C3F80823002070471049D6
:1017D0000B4B00204FF480520860C3F80823002010
:1017E00070470C49064B00204FF400520860C3F8C4
:1017F0000823002070474FF0FF3070475C2800201E
:1018000000100040702800206C280020682800206C
:1018100064280020602800202B4BD3F81021012AD7
:1018200010B547D0284BD3F85821012A39D0264B80
:10183000D3F85421012A2BD0234BD3F83021012A8D
:101840001DD0214BD3F83421012A0FD01E4BD3F8E1
:101850000421012A00D010BD1C4A0021C3F8041144
:101860001368002BF7D0BDE810401847184A002134
:10187000C3F834111368002BE8D09847E6E7154AFF
:101880000021C3F830111368002BDAD09847D8E74D
:10189000114A0021C3F854111368002BCCD098478B
:1018A000CAE70E4A0021C3F858111368002BBED0B6
:1018B0009847BCE70A4A0021C3F810111368002BAF
:1018C000B0D09847AEE700BF001000405C28002071
:1018D00060280020642800206C2800206828002050
:1018E0007028002010B584B000214FF040220391F1
:1018F000D2F82431012B09D0D2F80431012B27D0A2
:101900001A4BC2F80015196004B010BD1848C2F88F
:10191000241103AC53610068164A009101941946E2
:1019200001F07AFD039A11494FF040200023C0F8DE
:1019300000350B60002AE7D04FF0E0234FF08052D3
:10194000C3F8042DBFF34F8FBFF36F8F04B010BDEA
:101950000748C2F8041103AA0068CDE900124FF449
:101960008002194601F058FD039ADCE75429002053
:1019700078280020010040004FF0402210B42821B8
:10198000114CC2F808150623C2F80C35D4F82037DC
:101990000E4803404FF0A04143F00C03C4F8203739
:1019A000D1F81837034043F00C03C1F818374FF053
:1019B00080640023C2F82445C2F80032044B102290
:1019C0001A605DF8044B704700030050F0F8FCFF0C
:1019D00000E100E0F8B50D461646074601F032FE7C
:1019E0004FF040230622C3F800254FF40072C3F8DD
:1019F000002200244FF0FF310122C3F88875C3F89C
:101A00004865C3F83845C3F84455C3F80813C3F80C
:101A10000441C3F824419A6003E0D3F82421012A49
:101A20000FD0D3F80421012AF7D10024C3F80441D0
:101A30004FF040230022C3F8002501F013FE20469A
:101A4000F8BD0022C3F824216FF00074F0E700BF56
:101A500000B583B04FF48163022201A91520ADF8CF
:101A60000430FFF7B7FF40B940F60473022201A922
:101A70001520ADF80430FFF7ADFF03B05DF804FBAF
:101A800020B1034B800143F001031847704700BFAA
:101A9000E043000010B584B02A4A00210391D2F837
:101AA0000433D80303D5D2F84031012B36D0254A70
:101AB000D2F804339B0303D5D2F84431012B19D05B
:101AC000204BD3F80421012A06D11F4A0021C3F874
:101AD0000411136801331360039B4BB14FF0E023F3
:101AE0004FF08052C3F8042DBFF34F8FBFF36F8FB9
:101AF00004B010BD00214FF40030144CC2F8441162
:101B0000C2F84803C2F8080303AA2068CDE900120E
:101B10004FF00062194601F07FFCD1E74FF48030AE
:101B20000B4CC2F84011C2F84803C2F8080303AADC
:101B30002068CDE900124FF00062194601F06CFCFC
:101B4000B5E700BF00B00040142000201C2000209A
:101B50007C28002030B585B0044601F073FD01F00B
:101B60006FFB1C4D0121286001F0E8FC4FF0FF32B3
:101B70000121286801F0FCFC174B48F21231D3F820
:101B8000042501FB04F402EB94224FF4803122F08F
:101B90007F420024C3F84025C3F84041C3F84413F2
:101BA000C3F8041301F05EFD4FF0FF3203AB009267
:101BB0002146012001F04AFB0398430006D4B0F10E
:101BC000006018BF4FF0FF3005B030BD6FF003006C
:101BD000FAE700BF7C28002000B00040084BD3F893
:101BE000042502444FF4003122F07F420020C3F864
:101BF0004425C3F84401C3F84413C3F804137047E1
:101C000000B00040054B4FF400320021C3F84823D8
:101C1000C3F80823C3F84411704700BF00B0004068
:101C20000C4B4FF0804001220221C0F81825826041
:101C3000C3F84413C3F8041307494FF40060086065
:101C400000210648C3F8081505499A601A60036820
:101C50000B60704700B0004000E100E00000002091
:101C600010200020234BF0B5D3F87C41012C00D08C
:101C7000F0BD214EDFF884E0324600204FF0A04C4A
:101C80001F2852F8041B04FA00F30BD819B1DCF832
:101C900020551D4213D101301F2852F8041B04FAAD
:101CA00000F3F3D9A0F1200504FA05F319B1DEF829
:101CB00020751F421CD101302A28E1D1F0BD054614
:101CC0004FF0A04707EB85050A4AD5F8004724F4F2
:101CD0004034C5F80047D7F820452343C7F82035DE
:101CE000002346F82030BDE8F040C2F87C310847B8
:101CF000024FE7E7006000409028002000030050FA
:101D000029282ED870B4184D55F820601F288DBF93
:101D1000164C84464FF0A044A0F1200CCEB945F8F3
:101D2000203004EB8C009200C0F80027D4F8202566
:101D3000012303FA0CF31343C4F820350129D0F82A
:101D4000003709D043F44033C0F80037002070BC9E
:101D50007047022070BC704743F40033C0F800376E
:101D6000F4E70320704700BF9028002000030050D4
:101D700010B4124C54F82030CBB129281BD81F289E
:101D800011D803464FF0A04202EB83020023D2F8A1
:101D9000001744F8203021F4403118465DF8044B18
:101DA000C2F800177047064AA0F12003ECE70120B3
:101DB0005DF8044B70470022F6E700BF9028002032
:101DC000000300500B480C4B4FF0A04C0122CCF804
:101DD00024250021C0F824254FF00042C3F87C11CF
:101DE000C3F80423054B40221A60202283F80623FF
:101DF000704700BF000300500060004000E100E0B9
:101E00000C4B292810B4C3F80C0511D81F280CD886
:101E10004FF0A044074B00F5E0700C2244F820205E
:101E20005DF8044BC3F824157047034C2038F1E7E4
:101E30000024FBE7002000400003005010B50446DA
:101E400001F000FC0B4A04210123C2F80015C2F87E
:101E50001C459360D2F81C31002BFBD000230121DC
:101E6000C2F81C31BDE81040D160C2F8003501F065
:101E7000F9BB00BF0020004010B584B0134A002415
:101E80000394D2F81831012B01D004B010BD1048D2
:101E9000C2F8184103A9536100684FF40002CDE96C
:101EA0000041194601F0B8FA0A4A039B1460002B5E
:101EB000EBD04FF0E0234FF08052C3F8042DBFF376
:101EC0004F8FBFF36F8F04B010BD00BF00F0024012
:101ED0007428002058290020FEF78CB910B4154B47
:101EE000154C164A164917481B1B8A4203440CD24C
:101EF0000139891A21F00301043119441C68146066
:101F000004338B4202F10402F8D10F4B0F4A934283
:101F10000BD2013AD21A22F0030204321A440020F2
:101F20001946043393420860FAD15DF8044B02F07D
:101F300071B900BF10200020002000200000002008
:101F400000000020F8430000000000200C000020EA
:101F500070B54FF4204086B000F056FB0520FFF727
:101F60008FFD00F057FB264A264B10682649274D67
:101F7000274A284E1B1A9B08CDE90203491B264B12
:101F80000193921B4FF42040CDE9041200F03CFB7A
:101F9000044610B1204606B070BD142101A800F01F
:101FA00063FB04460028F5D1DDE90201890000F059
:101FB0005BFB04460028EDD10499284600F054FB51
:101FC00004460028E6D10599304600F04DFB044652
:101FD0000028DFD100F01EFB4FF4204000F014FB7E
:101FE00004460028D6D10D4B00930421684600F02A
:101FF0003BFB04460028CDD100F00CFBCAE700BF34
:10200000F02600200808002000000020000000202A
:102010000C000020000000200DF0AD8B0DD0FECA9A
:1020200000B585B000231728039304D007281DD0DE
:1020300005B05DF804FB134903AA0868CDE9003236
:10204000012103234FF0805201F0E6F9039B002B9E
:10205000EED04FF0E0234FF08052C3F8042DBFF3D1
:102060004F8FBFF36F8F05B05DF804FB0548064A3C
:10207000006803A9CDE900310323012101F0CCF967
:10208000E4E700BF1C200020010000102DE980487B
:10209000994E9A4C306889B000F0CCFE984B0022E3
:1020A00001210720FFF72CFE4FF0FF32009202AB18
:1020B0001146012001F0CAF8924B22689A4200F0C2
:1020C000EF804FF4204000F09BFA0520FFF7D8FC8A
:1020D00000F0A0FA4FF4204000F092FA0DF10C0845
:1020E00068B38948DFF85492FFF724FBFFF7F6FE48
:1020F000FEF74CF8854F864DDFF844B2DFF844A276
:10210000306800F00FFF002211467D4B1720FFF7CB
:10211000F7FD4FF0FF3202AB00921146012001F0B3
:1021200095F8306800F086FE029BB3F1805F40D0E6
:10213000534500F08E807748FFF7FCFAE0E7142162
:10214000404600F0C7FA0028CBD1734B039A9A425D
:1021500040F0CE80DDE90401890000F0BBFA0028E0
:10216000BFD106996D4800F0B5FA0028B9D107999A
:102170006B4800F0AFFA04460028B2D100F04AFAEA
:1021800004A904226748DFF8B49102F067F801233C
:1021900019464FF080423068009401F0C1F8D9F838
:1021A00000300133C9F80030FDF7F0FFFEF712F8F8
:1021B000A0E7AF4206D2554C54F8043B03B1984710
:1021C000AC42F9D3FDF7F4FFD9F80430072001330E
:1021D000C9F80430FFF7CCFD002844D0484B00225A
:1021E00001210720FFF78CFD40F6CD40FFF7F6FCFC
:1021F0004FF0FF32009243461146012001F026F8CD
:10220000494B039A9A4243D04FF0A043D3F810357C
:102210001B0221D4FFF79CFE0146A8BB4FF0FF3202
:10222000009243461146012001F010F83E4B039AFC
:102230009A4225D0FFF78CFE0146E8B94FF0FF32F5
:10224000009243461146012001F000F8FDF7C2FF5D
:1022500056E7FFF77DFE53E70022294B1146172072
:10226000FFF74EFDDAE7012300904FF0007230686F
:10227000194601F055F8B1E72C48FFF75BFADDE7A6
:102280001720FFF775FDE1E72848FFF753FAC5E788
:10229000FFF7B8FCDBF80000012101F04FF9D5E7AA
:1022A000FFF71CFEFDF7A0FF214A224B2249E41A4A
:1022B000D2F8043543F00303C2F80435D2F80034F1
:1022C00023B900BFD2F80034002BFAD000230B5101
:1022D000BFF35F8F164ADFF86490D2F8043523F01D
:1022E0000303C2F80435FDF751FF0DF10C0801E7B7
:1022F00000F090F9F5E600BF182000200020002033
:10230000212000000DF0AD8BEC420000542900208C
:1023100064290020284300000DD0FECA00000020E0
:1023200000000020F0260020010000100C430000F7
:1023300000E0014000200020F843000000000020E1
:102340001C20002002000010704700BF20BF40BFCB
:1023500020BF7047044B10B40360044C0C60802312
:102360005DF8044B138070478826002088240020E5
:1023700008B50348FFF7DEF920BF40BF20BFFBE7E9
:102380004C43000010B54FF0805184B00820FFF797
:1023900037FD154CFFF716FDFFF742FC00F0B2F8D1
:1023A000124A134913480223CDE9012400934FF444
:1023B0000072002300F02EFC0F4A1049044610481A
:1023C0000423CDE9011000930E49146000234FF45B
:1023D00080720D4800F01EFC0C4B186004B0BDE884
:1023E000104000F0F9BD00BFF02600200C000020D6
:1023F00070430000D91E000018200020202000207B
:1024000020240020744300008D2000001C200020A8
:1024100070B4374B83B00124DC64D3F84C25092A0F
:10242000FAD94FF0A042D2F810351B045DD5314BDC
:102430001B68292B57D81F2B51D8C1F31301012436
:1024400001432D48019104FA03F30326C2F80C3529
:102450002749C0F848650023284A294DC0F8383577
:1024600001AEC0F844650726C0F83435C0F818310D
:10247000C0F80431C0F8006513704FF40030C5F89F
:102480000445C1F84031C1F844314FF40073C1F83C
:102490000403C1F80032CC600C6013782BB920BF64
:1024A00040BF20BF1378002BF9D01548104B124ABB
:1024B00001244FF40031C0F80845C3F80813D2F8DE
:1024C0000431002BFBD00A4B002040240121C2F82C
:1024D0000005C2F80443196103B070BC704702F5EF
:1024E0004072203BA9E70022FBE74FF0FF30F3E703
:1024F00000B0014088280020003000408C280020D7
:1025000000F00140234B2449F0B41224C3F80845DD
:102510001124C3F80C450E24C3F810454FF0FF34C6
:10252000C3F814454FF0A04216240C6003244FF466
:102530008001C2F858470020C2F808154FF000414A
:10254000C2F83C07C3F85405C3F82415134A0823FE
:102550001360134B134C144E144D04210F27C3F872
:102560001015C3F84075C4F81065C4F814552D242F
:10257000C3F844450A24C3F8484501214FF4806458
:10258000C3F80042D96019604FF000631360F0BCDB
:10259000704700BF003000408828002000E100E0C4
:1025A00000B0014000F0014040B101401030004057
:1025B000084AD2F84431012B00D070470648074939
:1025C00010B40024C2F8444143615DF8044B0B7021
:1025D000704700BF00B00140003000408C28002050
:1025E000054AD2F81831012B05D104490020C2F860
:1025F000180153610B707047003000408C28002098
:1026000001460020FFF704BF01464FF40000FFF72A
:10261000FFBE00BF104B1B68292B30B419D81F2BED
:1026200014D84FF0A04501210C4A0D4C01FA03F3D8
:10263000C5F808354FF480604023D1601160C2F8BE
:1026400000020020C4F8083330BC7047054D203B21
:10265000E9E70025FBE700BF8828002000B0014023
:102660000030004000030050184B30B44FF0A0423F
:1026700000240725C3F84815C3F83845C3F84405B6
:10268000C3F83445C3F81841C3F80441C3F80055F2
:10269000D2F81025120415D50D4A012114701961C4
:1026A00013782BB920BF40BF20BF1378002BF9D07F
:1026B000064AD2F80431002BFBD00020C2F80005F6
:1026C00030BC70474FF0FF30FAE700BF00300040E9
:1026D0008C280020184B30B44FF0A042002407256E
:1026E000C3F84845C3F83815C3F84445C3F8340562
:1026F000C3F81841C3F80441C3F80055D2F81025B7
:10270000120415D50D4A01211470196113782BB9E3
:1027100020BF40BF20BF1378002BF9D0064AD2F863
:102720000431002BFBD00020C2F8000530BC7047FC
:102730004FF0FF30FAE700BF003000408C28002047
:1027400030B5224B224985B000220392C1F8042102
:102750001A68013A1A6082B1D1F82C361D4A1E4817
:102760000233C1F82C36D2F8483501680B4423F007
:102770007F43C2F8483505B030BD164C17480225D6
:10278000C1F808534FF48025C4F84853144C00682E
:1027900001238B60C1F80421C1F80025009222605A
:1027A00003AA019219464FF0807200F035FE039B98
:1027B000002BE0D04FF0E0234FF08052C3F8042DFF
:1027C000BFF34F8FBFF36F8F05B030BD842800205B
:1027D0000070004000B00040802800201820002039
:1027E0005C29002030B585B0154B00240394D3F844
:1027F0004051012D01D005B030BDC3F84041052046
:10280000FEF7B8FFFEF7ACFF0E490F4A086803ABAE
:10281000CDE9004329462B4614604FF4001200F026
:10282000FBFD039B002BE6D04FF0E0234FF08052DE
:10283000C3F8042DBFF34F8FBFF36F8F05B030BDCA
:1028400000A00040182000206029002000F10803AB
:102850004FF0FF310022C0E90131C0E903330260CB
:10286000704700BF00230361704700BFD0E900320A
:1028700010B494680133C1E90124616091605DF88E
:10288000044B08610360704730B40D686B1C10D0B6
:1028900000F108031C465B681A68AA42FAD902686C
:1028A0004B60013299608C606160086130BC0260ED
:1028B000704704696368F2E70346026999684068F3
:1028C00010B454688160486010689C4208BF516031
:1028D0000138002119615DF8044B1060704700BF9A
:1028E0002DE9F843264A274B274C284DD4F8009071
:1028F0001768D3F800800446286804300E46FFF7B6
:10290000DBFF631C17D02B6819EB04045C600BD24F
:10291000296838460431FFF7B7FF1D4B1A68A242F9
:1029200000D91C60BDE8F883296840460431BDE841
:10293000F843FFF7A9BF76B92B6809F1FF325A6057
:10294000B9F1000FF0D1296838460431FFF79CFF38
:102950000F4B1B68E6E70F4B29681C685A688A60B2
:102960002E68286829682D6801341C609468F4601A
:1029700004300431606091606B61BDE8F88300BF92
:10298000C8270020C42700207C27002058280020CA
:1029900060270020842700202B4B70B500222B4C91
:1029A0001A6021682268236812681B6B9A4204D956
:1029B0000B6B1A68B2F1A53F36D02168206834311C
:1029C000FFF7D6FC224D234A286800EB80038100E4
:1029D00052F82330002B34D1431E03EB830152F80D
:1029E000216099007EB9831E03EB830152F82160B8
:1029F000990046B9C31E03EB830152F82160990088
:102A00000EB9031F9900194402EB81000246416888
:102A1000496841600832914204BFC1684160CA6898
:102A200022602B60236870BD5A68B2F1A53FC4D103
:102A30009A68B2F1A53FC0D1DB68B3F1A53FBCD124
:102A4000C0E70346DFE700BF6C27002058280020BE
:102A500078270020F427002080B5134C134E144D26
:102A6000144F4FF0E0294FF080580EE000F0EAFDDF
:102A7000F368D8680430FFF71FFF2B68013B2B6019
:102A80002368013B236000F0EDFD2368002BEDD1AE
:102A90003B68012B05D9C9F8048DBFF34F8FBFF3F5
:102AA0006F8FFFF753FCF0E7982700209C2700204A
:102AB00080270020F42700202DE9F04F4C4B1D68A3
:102AC000013583B01D60002D68D04A490B689D42D6
:102AD00078D3494E33681868002800F085800020BC
:102AE000DFF82CE1454C01910746AA46814647E0B4
:102AF000D3E9022C5869C2F808C0CCF80420426817
:102B00008A42026808BFC0F804C0013A5F610260EF
:102B1000986A70B1D3E9072CC2F808C0CCF8042039
:102B20004268AA42026808BFC0F804C0013A9F6226
:102B30000260DA6ADEF8000002EB820C04EB8C081B
:102B40008242D8F8040054F82C50D0F808B09860AD
:102B5000C3F80CB0CBF804108160C3F81480284B84
:102B600088BFCEF800200135196844F82C5033682E
:102B7000C96A1B688A4288BF49F00109002B31D01D
:102B80003368DB68DB685A68924503F1040103F19E
:102B90001805ADD2019948460A6014E0164B194A4F
:102BA000186811681960184910600A6801320A60D3
:102BB0001A68126882B90F494FF0FF330B600B6837
:102BC0009D4286D20020114B1B68002B18BF40F09D
:102BD000010003B0BDE8F08F1B680649DB681B6885
:102BE0000B6073E7019948464FF0FF330B60EAE74B
:102BF0007C27002060270020C8270020F427002021
:102C000058280020C4270020682700206C270020B7
:102C1000782700202DE9F843DDE90994002C00F025
:102C2000A780B9F1000F00F0A6801646B600682212
:102C300007460D4620460021984601F0E3FAC4F805
:102C4000309048463246A52101F0DCFA236B043E61
:102C5000334423F00709002D3ED02B7884F834301C
:102C6000002B36D06B7884F8353093B3AB7884F88A
:102C7000363073B3EB7884F8373053B32B7984F85C
:102C8000383033B36B7984F8393013B3AB7984F8C7
:102C90003A30F3B1EB7984F83B30D3B12B7A84F836
:102CA0003C30B3B16B7A84F83D3093B1AB7A84F8A1
:102CB0003E3073B1EB7A84F83F3053B12B7B84F80C
:102CC000403033B16B7B84F8413013B1AB7B84F877
:102CD0004230002384F84330089D042D28BF04258A
:102CE000261DE5623046FFF7BDFDC5F1050504F17F
:102CF0001800FFF7B7FD42463946A56124616462BA
:102D0000484600F07BFC206000F09CFC3C4A3D4FB4
:102D10001368013313603B68002B2FD0DFF8088164
:102D2000E36AD8F80020002A31D0374D37493848B7
:102D30000A6801320A6002689A4238BF036003EBF6
:102D4000830305EB83019B004A68A2609068E06002
:102D500046609660EA5861610132EA5000F082FCF8
:102D6000D8F8003023B13A68E36AD26A9A4214D3A1
:102D70002046BDE8F8834846BDE8F8833C60136808
:102D8000012B15D0E36A204DDFF89C80CEE73A682E
:102D9000D26A9A4298BF3C60C7E74FF0E0234FF0F9
:102DA0008052C3F8042DBFF34F8FBFF36F8FDFE75F
:102DB000154DA84605F16409404608F11408FFF7CF
:102DC00045FDC845F8D1DFF86490DFF864804846D7
:102DD000FFF73CFD4046FFF739FD0E48FFF736FD93
:102DE0000D48FFF733FD0D48FFF730FD0C4BC3F8DE
:102DF00000900C4BC3F80080E36ADFF82C8095E765
:102E00008027002058280020F42700206427002075
:102E100078270020B02700209C270020842700204E
:102E2000C8270020C427002074270020E0270020A6
:102E3000CC27002070B50446324E00F003FC002C75
:102E400048D0251D2846FFF737FDA36A1BB104F1C2
:102E50001800FFF731FD29462B482C4DFFF706FDE2
:102E600094F86430012B04BF002384F8643094F894
:102E70006530012B04BF002384F8653094F8663078
:102E8000012B04BF002384F8663000F0EBFB2B68B5
:102E900093B93368A34200D070BD2B680BBB1C49AB
:102EA000194A09681268914226D01A4B1B682BB345
:102EB000194B01221A6070BD00F0C4FB174B1A6851
:102EC00012684AB11A68164BD26812681A6000F08C
:102ED000C9FBDEE73468B4E7114B4FF0FF321A60EC
:102EE000F5E74FF0E0234FF08052C3F8042DBFF315
:102EF0004F8FBFF36F8F70BD336070BDBDE8704002
:102F0000FFF74ABD5828002084270020742700209E
:102F100080270020582700206C270020C827002089
:102F200060270020F8B5274D2B6883420BD004465C
:102F300048B100F087FB244B62699A4204D0BDE897
:102F4000F84000F08FBBF8BDA36A204A9342F6D048
:102F5000002BF4D194F86430012BF0D094F8653054
:102F6000012BECD094F86630012BE8D0261D3046BA
:102F7000FFF7A2FC164AE36A11688B4288BF136010
:102F80002A681449D2F82CE003EB830201EB820C8F
:102F90009200DCF804508858AF68A5600130734592
:102FA000E7607E60AE60C4F814C08850C7D94FF0A7
:102FB000E0234FF08052C3F8042DBFF34F8FBFF3CF
:102FC0006F8FBCE75828002084270020B0270020FE
:102FD00078270020F427002010B58CB000241B4B6C
:102FE00008930DF1160207A906A8CDE90944CDE919
:102FF00006440B94FFF7AEF9DDE90623144800946C
:10300000CDE9013208A92346BDF81620FFF702FEDC
:10301000104B186018B9104B1B680CB010BD4FF066
:10302000400383F31188BFF36F8FBFF34F8F0B49BA
:103030000B4A0C4B4FF0FF300860012111601C60FF
:1030400000F060FB044B1B680CB010BD49444C45BC
:10305000592A00005C270020E84300006027002078
:10306000742700207C2700202DE9F04FDFF88881AD
:1030700083B000F0E7FAD8F80030013BC8F8003020
:10308000D8F800E0BEF1000F40F08F80534B1B6872
:10309000002B00F08A80DFF864C1DCF80030002BE0
:1030A00000F099804E4BDFF858914E4E0193DCF8BA
:1030B0000C30DB689A6AD3E9070154688160486084
:1030C00003F11800844208BF51601168C3F828E07A
:1030D00001391160D3E902415A69A1604C6054681A
:1030E000D9F800001D1DAC4208BF516011680139BC
:1030F0001160DA6A02EB820182423B4888BFC9F85C
:10310000002006EB810700687C68D0F82CA056F8F8
:103110002100D4F808B09C6001305245C3F80CB0CF
:10312000CBF80450A5605F6146F8210044D9019BAB
:1031300001221A60DCF80030002BB8D12B4B1A6842
:103140001268002A42D01A68294BD26812681A60A5
:10315000284D2C689CB1019F012605E0FFF7ACFCCF
:1031600000B13E60013C09D0D8F80030002BF5D00A
:103170002B68013C03F101032B60F5D12C60019B0E
:103180001B6893B14FF0E02317494FF08052096854
:10319000C3F8042DBFF34F8FBFF36F8F00F062FAB7
:1031A0000124204603B0BDE8F08F00F05BFA002454
:1031B000204603B0BDE8F08FDCF80030002B7FF430
:1031C00076AF0A4B1A681268002ABCD1084B4FF040
:1031D000FF321A60BCE7024B0193B9E78027002059
:1031E0006C270020F427002058280020C827002042
:1031F000602700207027002058270020B0270020DB
:1032000078270020054B1B680BB9FFF755BC044A13
:103210001368013300201360704700BF5827002057
:1032200070270020044B1B681BB1044B01221A605D
:103230007047FFF7B1BB00BF582700206C27002064
:10324000014B1868704700BF582800202DE9F8434B
:10325000314D1E462B680344044693F86430022B1C
:10326000174601D0089BCBB900F0ECF92EB12B68C2
:1032700004F1160253F8223033602B68234493F88C
:103280006430022B39D000262B682344002283F8B7
:10329000642000F0E7F93046BDE8F8831F4A136860
:1032A00001338846136000F0CDF92B68234493F86E
:1032B0006430022B2AD02B6803EB84034FF0010902
:1032C0009A6D22EA08029A652B68234483F8649079
:1032D00000F0C8F908984946FFF702FBFFF7C4FE63
:1032E0000028C1D14FF0E0234FF08052C3F8042DE5
:1032F000BFF34F8FBFF36F8FB6E72B6803EB8403E9
:1033000001269A6D22EA07029A65BDE700F0AAF944
:10331000FFF7AAFEA8E700BF582800205827002082
:103320002DE9F041DDF8188004460D4617461E468B
:1033300000F088F9B8F1000F05D005F1160354F834
:103340002330C8F800306119022091F8642081F818
:103350006400731ED2B2032B08D8DFE803F04E0FCF
:103360000402022A4FD0163544F82570012A0DD0E8
:10337000012400F077F92046BDE8F08104EB8505D3
:10338000012AAB6D03F10103AB65F1D1D4E902125F
:1033900063698A60516059681C48261DB14208BFA4
:1033A0005A601A681A49013A1A60E26A0B689A422E
:1033B00088BF0A601749006802EB820301EB8307AC
:1033C0009B007D68D0F82CE0C858D5F808C0A560EF
:1033D00001307245C4F80CC0CCF80460AE6067617F
:1033E000C850C5D94FF0E0234FF08052C3F8042DE8
:1033F000BFF34F8FBFF36F8FBAE704EB8505AB6D5B
:103400003B43AB65B2E70024B3E700BF5828002078
:1034100078270020F4270020F0B5059CEFF3118EEB
:103420004FF0400585F31188BFF36F8FBFF34F8FC7
:1034300024B101F1160550F82550256000EB010C70
:1034400002259CF864408CF86450013B5FFA84FCD0
:10345000032B09D8DFE803F0370F0502BCF1020F98
:103460005ED0163140F82120BCF1010F0CD00120B4
:103470008EF31188F0BD00EB8101BCF1010F8B6D63
:1034800003F101038B65F2D1264AC36A126802B3C5
:10349000254A516814688D68C1610134146000F1D7
:1034A000180405626C608C608262204A1268D26ADD
:1034B0009A42DCD2069B13B11A46012313601C4BBF
:1034C00001221A60D3E700EB81018B6D13438B65FA
:1034D000CAE7D0E902414269A1604C605468061D08
:1034E000B44208BF51601168124C01391160226862
:1034F00011499A4203EB830201EB82074FEA8202F1
:103500007D6838BF23608C58D5F808C085600134C9
:10351000C0F80CC0CCF80460AE6047618C50C4E7C2
:103520000020A5E758270020B027002058280020B9
:103530006C27002078270020F427002038B50D469E
:1035400080B104462C4400F07DF894F86430022BDE
:1035500005BF002384F864300024012400F082F8C1
:10356000204638BD014B1C68ECE700BF58280020FE
:1035700070B50E46154668B1044600F063F804EBDA
:1035800086018C6D8B6D23EA05038B6500F06AF86C
:10359000204670BD014B1C68EFE700BF5828002093
:1035A00082B0002301934FF0400383F31188BFF3EF
:1035B0006F8FBFF34F8F019B002BFCD002B0704781
:1035C00008480068006880F308884FF0000080F326
:1035D000148862B661B6BFF34F8FBFF36F8F00DF01
:1035E00000BF000008ED00E0DFF80C00016841F4C6
:1035F000700101607047000088ED00E010B44FF0EA
:103600008073074C40F8043C21F001016FF0020385
:1036100040E9034140E909325DF8044B4438704702
:10362000A1350000064B19680868B0E8F04F80F338
:103630000988BFF36F8F4FF0000080F31188704747
:10364000582800204FF0400383F31188BFF36F8F99
:10365000BFF34F8F024A136801331360704700BFF6
:1036600004200020034A1368013B13600BB983F365
:103670001188704704200020EFF30980BFF36F8F9B
:10368000144B1A681EF0100F08BF20ED108A20E9B5
:10369000F04F10602DE909004FF0400080F31188D1
:1036A000BFF34F8FBFF36F8FFFF7BCFD4FF00000EC
:1036B00080F3118809BC19680868B0E8F04F1EF063
:1036C000100F08BFB0EC108A80F30988BFF36F8F2A
:1036D000704700005828002008B54FF0400383F3DE
:1036E0001188BFF36F8FBFF34F8FFFF78BFD28B1AA
:1036F0004FF0E0234FF08052C3F8042D002383F3F2
:10370000118808BD30B54FF0E02483B0D4F8203DD7
:1037100043F47F03C4F8203DD4F8203D002543F056
:103720007F43C4F8203DC4F81C5DFEF70DFE0E4B30
:103730001D60FFF759FFD4F8343F43F04043C4F80D
:10374000343FFFF73DFFFFF76DFD01954FF040035C
:1037500083F31188BFF36F8FBFF34F8F019B002B53
:10376000FCD0002003B030BD0420002070B54FF025
:10377000FF0C4CF4E06C1CEA11541DBF1CEA1355FD
:1037800094EA0C0F95EA0C0F00F0DEF82C4481EA65
:10379000030621EA4C5123EA4C5350EA013518BF85
:1037A00052EA033541F4801143F4801338D0A0FB72
:1037B00002CE4FF00005E1FB02E506F00042E0FB1F
:1037C00003E54FF00006E1FB03569CF0000F18BF25
:1037D0004EF0010EA4F1FF04B6F5007F64F54074CD
:1037E00004D25FEA4E0E6D4146EB060642EAC62160
:1037F00041EA55514FEAC52040EA5E504FEACE2ECD
:10380000B4F1FD0C88BFBCF5E06F1ED8BEF1004FCF
:1038100008BF5FEA500E50F1000041EB045170BD4B
:1038200006F0004646EA010140EA020081EA03018F
:10383000B4EB5C04C2BFD4EB0C0541EA045170BD8B
:1038400041F480114FF0000E013C00F3AB8014F105
:10385000360FDEBF002001F0004170BDC4F100044E
:10386000203C35DA0C341BDC04F11404C4F12005CF
:1038700000FA05F320FA04F001FA05F240EA02002A
:1038800001F0004221F0004110EBD37021FA04F660
:1038900042EB06015EEA430E08BF20EAD37070BD1A
:1038A000C4F10C04C4F1200500FA04F320FA05F079
:1038B00001FA04F240EA020001F0004110EBD3707B
:1038C00041F100015EEA430E08BF20EAD37070BDEB
:1038D000C4F1200500FA05F24EEA020E20FA04F3C4
:1038E00001FA05F243EA020321FA04F001F0004173
:1038F00021FA04F220EA020000EBD3705EEA430EE4
:1039000008BF20EAD37070BD94F0000F0FD101F012
:103910000046400041EB010111F4801F08BF013C4B
:10392000F7D041EA060195F0000F18BF704703F089
:103930000046520043EB030313F4801F08BF013D10
:10394000F7D043EA0603704794EA0C0F0CEA1355CC
:1039500018BF95EA0C0F0CD050EA410618BF52EA86
:103960004306D1D181EA030101F000414FF000008C
:1039700070BD50EA410606BF1046194652EA43069A
:1039800019D094EA0C0F02D150EA013613D195EA0E
:103990000C0F05D152EA03361CBF104619460AD156
:1039A00081EA030101F0004141F0FE4141F4700160
:1039B0004FF0000070BD41F0FE4141F4780170BD50
:1039C00081F0004102E000BF83F0004330B54FEAD0
:1039D00041044FEA430594EA050F08BF90EA020F3D
:1039E0001FBF54EA000C55EA020C7FEA645C7FEAD0
:1039F000655C00F0E2804FEA5454D4EB5555B8BFF3
:103A00006D420CDD2C4480EA020281EA030382EA63
:103A1000000083EA010180EA020281EA0303362DF5
:103A200088BF30BD11F0004F4FEA01314FF4801CC8
:103A30004CEA113102D0404261EB410113F0004FDA
:103A40004FEA03334CEA133302D0524263EB430391
:103A500094EA050F00F0A780A4F10104D5F1200E2F
:103A60000DDB02FA0EFC22FA05F2801841F100018A
:103A700003FA0EF2801843FA05F359410EE0A5F15E
:103A800020050EF1200E012A03FA0EFC28BF4CF08F
:103A9000020C43FA05F3C01851EBE37101F0004545
:103AA00007D54FF0000EDCF1000C7EEB00006EEB52
:103AB0000101B1F5801F1BD3B1F5001F0CD34908DC
:103AC0005FEA30004FEA3C0C04F101044FEA445233
:103AD00012F5800F80F09A80BCF1004F08BF5FEABA
:103AE000500C50F1000041EB045141EA050130BD9A
:103AF0005FEA4C0C404141EB0101013C28BFB1F5AC
:103B0000801FE9D291F0000F04BF01460020B1FAF6
:103B100081F308BF2033A3F10B03B3F120020CDAC9
:103B20000C3208DD02F1140CC2F10C0201FA0CF0A7
:103B300021FA02F10CE002F11402D8BFC2F1200C0C
:103B400001FA02F120FA0CFCDCBF41EA0C019040C2
:103B5000E41AA2BF01EB0451294330BD6FEA04040B
:103B60001F3C1CDA0C340EDC04F11404C4F12002F6
:103B700020FA04F001FA02F340EA030021FA04F308
:103B800045EA030130BDC4F10C04C4F1200220FA5F
:103B900002F001FA04F340EA0300294630BD21FA9D
:103BA00004F0294630BD94F0000F83F4801306BF63
:103BB00081F480110134013D4EE77FEA645C18BF57
:103BC0007FEA655C29D094EA050F08BF90EA020FEE
:103BD00005D054EA000C04BF1946104630BD91EAE6
:103BE000030F1EBF0021002030BD5FEA545C05D1E9
:103BF0004000494128BF41F0004130BD14F5800428
:103C00003CBF01F5801130BD01F0004545F0FE419B
:103C100041F470014FF0000030BD7FEA645C1ABFD0
:103C2000194610467FEA655C1CBF0B46024650EA07
:103C3000013406BF52EA033591EA030F41F4002133
:103C400030BD00BF90F0000F04BF0021704730B5B9
:103C50004FF4806404F132044FF000054FF000018E
:103C600050E700BF90F0000F04BF0021704730B54F
:103C70004FF4806404F1320410F0004548BF404224
:103C80004FF000013EE700BF42004FEAE2014FEA79
:103C900031014FEA02701FBF12F07F4393F07F4F54
:103CA00081F06051704732F07F4208BF704793F057
:103CB0007F4F04BF41F40021704730B54FF460746A
:103CC00001F0004521F000411CE700BF50EA01026D
:103CD00008BF704730B54FF000050AE050EA010216
:103CE00008BF704730B511F0004502D5404261EB86
:103CF00041014FF4806404F132045FEA915C3FF4C7
:103D0000D8AE4FF003025FEADC0C18BF03325FEA63
:103D1000DC0C18BF033202EBDC02C2F1200300FA14
:103D200003FC20FA02F001FA03FE40EA0E0021FA39
:103D300002F11444BDE600BF4FF0FF3C06E000BFB7
:103D40004FF0010C02E000BF4FF0010C4DF804CD24
:103D50004FEA410C7FEA6C5C4FEA430C18BF7FEAE4
:103D60006C5C1BD001B050EA410C0CBF52EA430C12
:103D700091EA030F02BF90EA020F0020704710F192
:103D8000000F91EA030F58BF994208BF90422CBF21
:103D9000D8176FEAE37040F0010070474FEA410C1A
:103DA0007FEA6C5C02D150EA013C07D14FEA430C38
:103DB0007FEA6C5CD6D152EA033CD3D05DF8040BA9
:103DC000704700BF8446104662468C4619466346DB
:103DD00000E000BF01B5FFF7B7FF002848BF10F1B2
:103DE000000F01BD4DF808EDFFF7F4FF0CBF0120F7
:103DF00000205DF808FB00BF4DF808EDFFF7EAFF73
:103E000034BF012000205DF808FB00BF4DF808ED2D
:103E1000FFF7E0FF94BF012000205DF808FB00BF22
:103E20004DF808EDFFF7CEFF94BF012000205DF8AC
:103E300008FB00BF4DF808EDFFF7C4FF34BF0120B9
:103E400000205DF808FB00BF4FEA410212F50012A6
:103E500015D211D56FF47873B3EB625212D94FEAD1
:103E6000C12343F0004343EA505311F0004F23FABB
:103E700002F018BF404270474FF00000704750EA10
:103E8000013005D111F0004008BF6FF000407047CD
:103E90004FF00000704700BF4A0011D212F5001227
:103EA00011D20DD56FF47873B3EB62520ED44FEA92
:103EB000C12343F0004343EA505323FA02F0704712
:103EC0004FF00000704750EA013002D14FF0FF3050
:103ED00070474FF00000704753B94AB9002908BF36
:103EE00000281CBF4FF0FF314FF0FF3000F088B9C1
:103EF000ADF1080C6DE904CE00F006F8DDF804E041
:103F0000DDE9022304B070472DE9F047089D0F4614
:103F100004468C46002B48D18A42164661D9B2FA33
:103F200082F34BB1C3F1200201FA03FC20FA02F242
:103F30009E4042EA0C0C9C404FEA164EB7B2BCFBC6
:103F4000FEF1220C0EFB11CC42EA0C4201FB07F001
:103F5000904209D9B21801F1FF3C80F0EE80904206
:103F600040F2EB8002393244121AA4B2B2FBFEF0E6
:103F70000EFB102244EA024400FB07F7A74209D9CE
:103F8000341900F1FF3280F0DA80A74240F2D78086
:103F90003444023840EA0140E41B00211DB1DC40FA
:103FA0000023C5E90043BDE8F0878B4206D90DB177
:103FB000C5E9000100210846BDE8F087B3FA83F1A6
:103FC000002948D1BB4202D3824200F20781841A01
:103FD00067EB030201209446002DE4D0C5E9004CB4
:103FE000E1E7002A00F09280B2FA82F3002B40F061
:103FF000A8808A1A4FEA164E1FFA86FC0121200C6F
:10400000B2FBFEF70EFB172240EA02420CFB07F060
:10401000904207D9B21807F1FF3802D2904200F25D
:10402000E2804746121AA4B2B2FBFEF00EFB102249
:1040300044EA02440CFB00FCA44507D9341900F102
:10404000FF3202D2A44500F2CB801046A4EB0C0450
:1040500040EA0740A2E7C1F120068B4022FA06FCA5
:104060004CEA030C07FA01F420FA06F3F7404FEA92
:104070001C49234300FA01F81FFA8CFEB7FBF9F044
:104080001C0C09FB107744EA074400FB0EF7A7421B
:1040900002FA01F20AD91CEB040400F1FF3A80F0A5
:1040A0009B80A74240F2988002386444E41B9FB290
:1040B000B4FBF9F309FB134447EA044403FB0EFE87
:1040C000A64509D91CEB040403F1FF3780F0828078
:1040D000A6457FD9023B644443EA0040A4EB0E04AA
:1040E000A0FB02E7BC427346B94663D360D05DB122
:1040F000B8EB030264EB090404FA06F622FA01F3B2
:104100001E43CC40C5E9006400214CE76208480822
:1041100042EAC1710B0C43EA00438AB242EA03420D
:10412000B3FBF6F1E407B4463746B6461F23B0FBAF
:10413000F6F0D21B41EA004161E7614614E7104600
:1041400028E7C3F1200120FA01F29E4027FA01F18D
:104150009F403A434FEA164E1FFA86FCB1FBFEF72A
:104160000EFB1710110C41EA004107FB0CF88845C3
:1041700004FA03F43AD9711807F1FF3001D28845E7
:104180001FD8A1EB0801B1FBFEF808FB0CF70EFBF2
:10419000181192B242EA0142BA422FD2B21808F183
:1041A000FF31C6D2BA42C4D2A8F102013244C0E7FC
:1041B000F0459CD2BEEB020367EB0C070138B94611
:1041C00095E7A6EB08084144B81EB1FBFEF808FBD2
:1041D0000CF7DCE73B467FE7504667E70846FBE61F
:1041E0003444023832E7023F32441BE7A1EB0801B6
:1041F0003846B1FBFEF808FB0CF7C8E7414698E7E4
:10420000704700BF02440346934200D1704703F851
:10421000011BF9E770B50D4B0D4D5B1B9C10002683
:10422000A64209D100F028F80A4D0B4B5B1B9C10ED
:104230000026A64205D170BD55F8043B98470136CB
:10424000EEE755F8043B98470136F2E708200020D6
:1042500008200020082000200C2000200A44914261
:1042600000F1FF3300D1704710B511F8014B03F88E
:10427000014F9142F9D110BDF8B500BFF8BC08BCA0
:104280009E467047F8B500BFF8BC08BC9E46704714
:1042900072657365740D0A0073757370656E640DD5
:1042A0000A00000073757370656E64203132330D3F
:1042B0000A000000726573756D650D0A000000004C
:1042C000626F6F7473747261700D0A006D61696E54
:1042D0002073746172740D0A000000006D61696ED4
:1042E000206C6F6F702025750D0A00004C6F6164A3
:1042F000696E6720636865636B706F696E742066B2
:1043000061696C6564210D0A000000004368656303
:104310006B706F696E74696E67206661696C656445
:104320003A2025640D0A000057726F6E67206E6F89
:1043300074696669636174696F6E2076616C756516
:104340002072656365697665640D0A000D0A504147
:104350004E49433A20537461636B20686173206F48
:10436000766572666C6F776564210D0A0000000047
:10437000555352005359530000000001010102023D
:104380000200000000010200010200010200000022
:10439000000000000000F03F00000000000024408A
:1043A00000000000000059400000000000408F4065
:1043B000000000000088C34000000000006AF840D0
:1043C0000000000080842E4100000000D0126341F4
:1043D0000000000084D797410000000065CDCD416A
:1043E0000338FDD870470000040000000000000002
:0843F00018FBFF7F0100000033
:1043F8000DF0AD8BAAAAAAAA69010000410100002C
:0400000300000239BE
:00000001FF
